{"abi":[{"type":"constructor","inputs":[{"name":"_wallet","type":"address","internalType":"address"},{"name":"_vault","type":"address","internalType":"address"},{"name":"_threshold","type":"uint256","internalType":"uint256"}],"stateMutability":"nonpayable"},{"type":"function","name":"addSigner","inputs":[{"name":"signer","type":"address","internalType":"address"}],"outputs":[],"stateMutability":"nonpayable"},{"type":"function","name":"analyze","inputs":[{"name":"data","type":"bytes","internalType":"bytes"}],"outputs":[{"name":"","type":"bool","internalType":"bool"},{"name":"","type":"bytes","internalType":"bytes"}],"stateMutability":"view"},{"type":"function","name":"approvedSigners","inputs":[{"name":"","type":"address","internalType":"address"}],"outputs":[{"name":"","type":"bool","internalType":"bool"}],"stateMutability":"view"},{"type":"function","name":"collect","inputs":[],"outputs":[{"name":"","type":"bytes","internalType":"bytes"}],"stateMutability":"view"},{"type":"function","name":"lastNonce","inputs":[],"outputs":[{"name":"","type":"uint256","internalType":"uint256"}],"stateMutability":"view"},{"type":"function","name":"monitoredWallet","inputs":[],"outputs":[{"name":"","type":"address","internalType":"address"}],"stateMutability":"view"},{"type":"function","name":"safeVault","inputs":[],"outputs":[{"name":"","type":"address","internalType":"address"}],"stateMutability":"view"},{"type":"function","name":"thresholdValue","inputs":[],"outputs":[{"name":"","type":"uint256","internalType":"uint256"}],"stateMutability":"view"},{"type":"function","name":"updateNonce","inputs":[{"name":"newNonce","type":"uint256","internalType":"uint256"}],"outputs":[],"stateMutability":"nonpayable"}],"bytecode":{"object":"0x6080346100a657601f6104cc38819003918201601f19168301916001600160401b038311848410176100aa578084926060946040528339810103126100a657610047816100be565b6040610055602084016100be565b9201519160018060a01b03908160018060a01b03199316835f5416175f5516906001541617600155600355335f52600460205260405f20600160ff198254161790556040516103f990816100d38239f35b5f80fd5b634e487b7160e01b5f52604160045260245ffd5b51906001600160a01b03821682036100a65756fe60806040818152600480361015610014575f80fd5b5f92833560e01c908163488a64f0146102a95750806352631ab41461028a5780636d7a3ac8146102705780638171a6ef146101fa5780638a875512146101bc5780638e090e9114610194578063deef94de1461016b578063e52253811461010c5763eb12d61e14610083575f80fd5b346101085760203660031901126101085780356001600160a01b03811690819003610104573384528160205260ff8385205416156100d05783526020528120805460ff1916600117905580f35b506020606492519162461bcd60e51b8352820152600e60248201526d139bdd08185d5d1a1bdc9a5e995960921b6044820152fd5b8380fd5b8280fd5b5050346101675781600319360112610167576101639160018060a01b039054163190600254918151926020840152818301524260608301526060825261015182610303565b519182916020835260208301906102c5565b0390f35b5080fd5b50503461016757816003193601126101675760015490516001600160a01b039091168152602090f35b505034610167578160031936011261016757905490516001600160a01b039091168152602090f35b50346101085760203660031901126101085780356001600160a01b03811690819003610104578360ff92849260209652855220541690519015158152f35b50823461026d57602036600319011261026d5781359067ffffffffffffffff9283831161016757366023840112156101675782013592831161026d57366024848401011161026d57506101639160246102539201610333565b8392919251938493151584528060208501528301906102c5565b80fd5b838234610167576020366003190112610167573560025580f35b5050346101675781600319360112610167576020906002549051908152f35b8490346101675781600319360112610167576020906003548152f35b91908251928382525f5b8481106102ef575050825f602080949584010152601f8019910116010190565b6020818301810151848301820152016102cf565b6080810190811067ffffffffffffffff82111761031f57604052565b634e487b7160e01b5f52604160045260245ffd5b9081606091810103126103bf576002546020820135913511610376575b505f906040516020810181811067ffffffffffffffff82111761031f576040525f815290565b6003548110156103505760015460405163a9059cbb60e01b60208201526001600160a01b039091166024820152604480820192909252908152906103b982610303565b60019190565b5f80fdfea2646970667358221220a75fec5cf05b4b90b8996e6445e03ba103a0db7a0103cf6dee4a3a5fc3c4eaff64736f6c63430008140033","linkReferences":{}},"methodIdentifiers":{"addSigner(address)":"eb12d61e","analyze(bytes)":"8171a6ef","approvedSigners(address)":"8a875512","collect()":"e5225381","lastNonce()":"52631ab4","monitoredWallet()":"8e090e91","safeVault()":"deef94de","thresholdValue()":"488a64f0","updateNonce(uint256)":"6d7a3ac8"},"id":22}